:03000000020006F5
:03005F0002000399
:0300030002008D6B
:20006200AE82AF837C007D00C3EC9EED9F501B7A787B00EA24FFF8EB34FFF988028903E858
:200082004970F00CBC00E10D80DE22D290D2B220B2FD90001412006220B2F4B29030B2FDCB
:0200A20080EDEF
:06003500E478FFF6D8FD9F
:200013007900E94400601B7A009000A8780175A000E493F2A308B8000205A0D9F4DAF275EB
:02003300A0FF2C
:20003B007800E84400600A790175A000E4F309D8FC7800E84400600C7900900001E4F0A3C3
:04005B00D8FCD9FAFA
:0D0006007581071200A4E58260030200036B
:0400A400758200223F
:00000001FF
